:100000000C9480000C94A8000C94A8000C94A800F8
:100010000C94A8000C94A8000C94A8000C94A800C0
:100020000C94A8000C94A8000C94A8000C94A800B0
:100030000C94A8000C94A8000C94A8000C94A800A0
:100040000C9497070C94A8000C949C030C947603D2
:100050000C94A8000C94A8000C94A8000C94A80080
:100060000C94CE030C94A8004E414E494E4954596D
:10007000494E46CDCCCC3D0AD7233C17B7D1387773
:10008000CC2B329595E6241FB14F0A000020410089
:1000900000C84200401C4620BCBE4CCA1B0E5AAED3
:1000A000C59D7400000000240027002A0000000005
:1000B0000023002600290000000000250028002B56
:1000C0000004040404040404040202020202020301
:1000D000030303030301020408102040800102040B
:1000E000081020010204081020000000080002018E
:1000F00000000304070000000000000000003C0FA7
:1001000011241FBECFEFD8E0DEBFCDBF11E0A0E0CD
:10011000B1E0EAE7FDE202C005900D92A838B10710
:10012000D9F723E0A8E8B1E001C01D92A831B207D9
:10013000E1F710E0C0E8D0E004C02197FE010E9482
:10014000B014CF37D107C9F70E94CF080C94BB1663
:100150000C940000CF92DF92EF92FF920F931F93C7
:10016000CF93DF936C017A018B01C0E0D0E0CE1514
:10017000DF0581F0D8016D918D01D601ED91FC91E3
:100180000190F081E02DC6010995892B11F021968F
:10019000EECF7E01C701DF91CF911F910F91FF90AC
:1001A000EF90DF90CF900895FC01538D448D252F63
:1001B00030E0842F90E0821B930B541710F0CF9601
:1001C000089501970895FC01918D828D981761F033
:1001D000828DDF01A80FB11D5D968C91928D9F5F7E
:1001E0009F73928F90E008958FEF9FEF0895FC0129
:1001F000918D828D981731F0828DE80FF11D858DDC
:1002000090E008958FEF9FEF0895FC01918D228D6E
:10021000892F90E0805C9F4F821B91098F739927F3
:1002200008958DE492E00E94050121E0892B09F4F4
:1002300020E0822F0895FC01848DDF01A80FB11DFD
:10024000A35ABF4F2C91848D90E001968F7399270C
:10025000848FA689B7892C93A089B1898C918064F9
:100260008C93938D848D981306C00288F389E02DBA
:1002700080818F7D80830895EF92FF920F931F936B
:10028000CF93DF93EC0181E0888F9B8D8C8D981349
:1002900005C0E889F989808185FD24C0F62E0B8D83
:1002A00010E00F5F1F4F0F731127E02E8C8DE812A7
:1002B0000CC00FB607FCFACFE889F989808185FF69
:1002C000F5CFCE010E941B01F1CF8B8DFE01E80F0F
:1002D000F11DE35AFF4FF0820B8FEA89FB89808181
:1002E000806207C0EE89FF896083E889F98980818F
:1002F0008064808381E090E0DF91CF911F910F9126
:10030000FF90EF900895CF93DF93EC01888D8823C1
:10031000C9F0EA89FB89808185FD05C0A889B98972
:100320008C9186FD0FC00FB607FCF5CF808185FF4D
:10033000F2CFA889B9898C9185FFEDCFCE010E94BB
:100340001B01E7CFDF91CF91089580E090E0892BEA
:1003500029F00E94110181110C9400000895CF92A0
:10036000DF92EF92FF92CF936B017C019B01AC0176
:100370006EEF7FEF81E090E00E9499149B01AC0149
:1003800060E074E284EF90E00E94F612C0E0EC2F8F
:10039000F0E0EE0FFF1FEC5CFE4F80819181CF5F9C
:1003A00082179307A0F3EC2FF0E0EE0FFF1FEC5C39
:1003B000FE4FA081B181A7019601220F331F441F78
:1003C000551F0E94AC129B01AC0160E074E284EF07
:1003D00090E00E94F612309387002093860080916F
:1003E0008100887FC770C82BC093810081E0CF91C6
:1003F000FF90EF90DF90CF90089585ED8093BC0043
:100400008091BC0084FDFCCF109228020895409199
:10041000A801262F30E0240F311D21323105DCF4F4
:10042000209128022430C9F4FC0180E090E0861776
:1004300058F43091A8012191DC01A857BE4FA30FB9
:10044000B11D2C930196F3CF8091A801680F6093A2
:10045000A80180E0089581E0089582E0089508955C
:10046000E091E1018091E001E81730F4F0E0EE5115
:10047000FE4F808190E008958FEF9FEF0895909157
:10048000E1018091E001981750F4E92FF0E0EE517E
:10049000FE4F208130E09F5F9093E10102C02FEF7B
:1004A0003FEFC90108958091E00190E02091E101C2
:1004B000821B91090895CF92DF92EF92FF920F93E2
:1004C0001F93CF93DF937C01CB018A0120912902F6
:1004D000222389F0EB016B01C40ED51ECC15DD057E
:1004E00069F06991D701ED91FC910190F081E02DC7
:1004F000C7010995F3CF642F0E940702C801DF915D
:10050000CF911F910F91FF90EF90DF90CF900895C2
:10051000CF93DF931F92CDB7DEB769832091290275
:100520002223D1F020914C02203240F021E030E033
:10053000FC013383228380E090E015C080912A0281
:10054000E82FF0E0E55DFD4F998190838F5F809308
:100550002A0280934C0205C061E0CE0101960E9400
:10056000070281E090E00F90DF91CF910895089508
:1005700080E090E008950F931F93E82FCB01BA011C
:100580000E2E000CFF0BE751FF4FE4912DEF2E0FC5
:10059000223078F48B019C010150110921093109A5
:1005A000003814482E413105A8F41F910F910C9486
:1005B000AF01E83079F48B019C010F511109210939
:1005C0003109023614482E41310520F41F910F9154
:1005D0000C94AB0580E01F910F910895CF93DF93AA
:1005E000A82FB0E0FD01EB52FF4F9491FD01EF53B6
:1005F000FF4F4491442399F050E0440F551FFA01F6
:10060000ED55FF4FC591D491FA01E954FF4F259163
:1006100034912FB7F894E881E92BE8832FBF61115B
:1006200002C060E003C06F3F29F461E0DF91CF9129
:100630000C946D06FD01E751FF4FE491E330D1F0DA
:1006400050F4E23079F584B5806284BDA7B5B0E09E
:10065000C8E4D0E037C0E430C9F0E83019F5809143
:10066000B00080628093B000A091B300B0E0C4EB12
:10067000D0E028C080918000806880938000A091A5
:100680008600B0918700C8E8D0E00FC0809180005C
:10069000806280938000A0918600B0918700CAE8B4
:1006A000D0E003C067FFBDCFC0CF262F30E00E944F
:1006B00018132FEF30E040E050E00E94F61239832B
:1006C00028830BC0262F30E00E9418132FEF30E054
:1006D00040E050E00E94F6122883DF91CF91089508
:1006E00066E283E00C94EE020E949D161F920F9228
:1006F0000FB60F9211242F933F934F935F936F93F5
:100700007F938F939F93AF93BF93EF93FF938DE46A
:1007100092E00E941B01FF91EF91BF91AF919F91D9
:100720008F917F916F915F914F913F912F910F909A
:100730000FBE0F901F9018951F920F920FB60F9239
:1007400011242F938F939F93EF93FF93E0915D027A
:10075000F0915E028081E0916302F091640282FD7B
:1007600012C09081809166028F5F8F732091670223
:10077000821751F0E0916602F0E0E35BFD4F958F48
:100780008093660201C08081FF91EF919F918F91CC
:100790002F910F900FBE0F901F9018951F920F92E0
:1007A0000FB60F9211242F933F934F935F936F9344
:1007B0007F938F939F93AF93BF93EF93FF9380911A
:1007C000B900887F803609F49CC068F5883209F446
:1007D0005BC090F4803109F454C038F4882309F4E4
:1007E000F2C0883009F44DC0F2C0883109F44CC021
:1007F000803209F45DC0EBC0803409F468C048F46D
:10080000803309F455C0883309F0E1C08093260293
:10081000D4C0803509F44FC0883509F45DC08834F0
:1008200009F0D5C0D2C0883909F4C3C0A8F488370C
:1008300009F467C038F4883609F463C0803709F4D6
:1008400060C0C5C0883809F4B4C0803909F45FC0FD
:10085000803809F0BCC05BC0803B09F484C038F428
:10086000803A09F466C0883A09F47DC0B0C0803C83
:1008700009F4A3C0883C09F4A0C0883B09F486C0F1
:10088000A6C08091030210C090912502809124029D
:10089000981770F5E091250281E08E0F8093250274
:1008A000F0E0EC5FFD4F80818093BB0085EC82C05F
:1008B000809326028AC0E091250281E08E0F80930A
:1008C00025028091BB00F0E0EC5FFD4F80839091AA
:1008D0002502809124026AC0E091250281E08E0FFA
:1008E000809325028091BB00F0E0EC5FFD4F808398
:1008F00080912702811169C081E08093020284EA1D
:100900005DC083E0809328021092CA01CFCF80910E
:10091000CA01803208F04DC0E091CA0181E08E0F1B
:100920008093CA018091BB00F0E0E655FE4F8083C2
:10093000BDCF85EC8093BC00109228028091CA0143
:10094000803230F4E091CA01F0E0E655FE4F1082AB
:100950006091CA0170E08AEA91E0E0E0F0E0099578
:100960001092CA0134C084E0809328021092A90139
:100970001092A801E0E0F0E009958091A8018111B2
:1009800005C081E08093A80110928801E091A9013F
:1009900081E08E0F8093A901F0E0E857FE4F80813F
:1009A0008093BB009091A9018091A801981708F449
:1009B0007DCF85E88093BC000AC085EC8093BC00A5
:1009C0001092280204C0109226020E94FD01FF919D
:1009D000EF91BF91AF919F918F917F916F915F91B7
:1009E0004F913F912F910F900FBE0F901F90189530
:1009F0003FB7F8948091FE029091FF02A09100030E
:100A0000B091010326B5A89B05C02F3F19F00196B0
:100A1000A11DB11D3FBFBA2FA92F982F8827820F84
:100A2000911DA11DB11DBC01CD0142E0660F771FD4
:100A3000881F991F4A95D1F70895282F30914C02AD
:100A4000313208F04AC0809128028111FCCF909188
:100A50004B0242E040932802209327022FEF20937D
:100A600026021092250230932402EBE2F2E0A4E089
:100A7000B2E020E0321721F041914D932F5FFACF81
:100A80001092030220910302990F922B909303027C
:100A900090910202913061F410920202909103024F
:100AA0009093BB009091BC0093FDF8CF95EC01C0F2
:100AB00095EE9093BC00909128029230E1F39091D2
:100AC00026029F3F79F080912602803241F080918A
:100AD0002602803331F084E005C081E003C082E06B
:100AE00001C083E010922A0210924C021092290257
:100AF00008951F93CF93DF93162FCAEFD2E098810A
:100B000021E02093290290934B0210922A02109226
:100B10004C02A981BA81ED91FC9111970190F0816D
:100B2000E02D682FCD01099589819A81DC01ED9135
:100B3000FC910190F081E02D612F099581E0DF911A
:100B4000CF911F910C941D05DC01ED91FC9101905A
:100B5000F081E02D09948F929F92AF92BF92CF9235
:100B6000DF92EF92FF920F931F93CF936B017C0163
:100B7000AEEFB1E09B01AC010E94AC129B01AC0155
:100B800060E074E284EF90E00E94F612C0E0CC0CCA
:100B9000DD1CEE1CFF1C812C44E2942E44EFA42E9D
:100BA000B12CCF5FEC2FF0E0EE0FFF1FEC5DFE4F9E
:100BB0000081118102171307A0F3D801A701960144
:100BC0000E94AC129B01AC01C501B4010E94F61257
:100BD0002F3F310519F010F09801E3CF2093B300B7
:100BE0008091B100887FC770C82BC093B10081E0AD
:100BF000CF911F910F91FF90EF90DF90CF90BF901A
:100C0000AF909F908F9008952FB7F8948091020332
:100C100090910303A0910403B09105032FBF80932B
:100C2000550290935602A0935702B09358028DE458
:100C300092E00E94E30097FF26C02FB7F8948091BE
:100C4000020390910303A0910403B09105032FBF09
:100C5000409155025091560260915702709158028E
:100C6000841B950BA60BB70B409151025091520279
:100C7000609153027091540284179507A607B70735
:100C8000B0F28FEF9FEF0895833081F028F4813028
:100C900099F08230A1F008958730A9F08830B9F03A
:100CA0008430D1F4809180008F7D03C080918000DA
:100CB0008F7780938000089584B58F7702C084B5C4
:100CC0008F7D84BD08958091B0008F7703C080919F
:100CD000B0008F7D8093B00008951F93CF93DF9372
:100CE000282F30E0F901E751FF4F8491F901EB52D1
:100CF000FF4FD491F901EF53FF4FC491CC23C1F0C2
:100D0000162F81110E944406EC2FF0E0EE0FFF1F1A
:100D1000E954FF4FA591B4919FB7F894111104C005
:100D20008C91D095D82302C0EC91DE2BDC939FBF31
:100D3000DF91CF911F9108958E3008F08E5087700B
:100D4000806480937C0080917A00806480937A0034
:100D500080917A0086FDFCCF809178002091790007
:100D600090E0922B08958F929F92AF92BF92CF9274
:100D7000DF92EF92FF926B017C010E94F8044B011D
:100D80005C01C114D104E104F104F1F00E94F80403
:100D9000DC01CB0188199909AA09BB09883E934057
:100DA000A105B10570F321E0C21AD108E108F108EC
:100DB00088EE880E83E0981EA11CB11CC114D104DA
:100DC000E104F10419F7DDCFFF90EF90DF90CF90B1
:100DD000BF90AF909F908F900895CF93DF9326E6BA
:100DE00036E646E65FE30E94CC119B01AC0160E26F
:100DF0007CEB8EEB95E40E94941320E030E040E819
:100E00005FE30E94271320E030E040E05FE30E94B0
:100E100028130E943C140E940D14D62F8091FA02D0
:100E200091E09093290280934B0210922A02109233
:100E30004C028091FB029091FC02DC01ED91FC914F
:100E40000190F081E02D60E0099581E00E941D0590
:100E50008091FA02909128029111FCCF91E0909339
:100E60002802909327022FEF20932602109225024A
:100E7000109224029093030290910302880F892B11
:100E80008093030280910202813061F41092020289
:100E9000809103028093BB008091BC0083FDF8CF5A
:100EA00085EC01C085EE8093BC00809128028130E2
:100EB000E1F380912502811103C09091250201C0C8
:100EC00091E0A4E0B2E0E2EEF1E080E0891721F0E9
:100ED0002D9121938F5FFACF1092E1018093E00171
:100EE0008091FB029091FC02DC01ED91FC91028467
:100EF000F385E02D0995C82F682F6F76606180E03B
:100F00000E9479056D2F8EEF0E9479056C2F80E08D
:100F10000E94790565E070E080E090E00E94B306F1
:100F20006C2F606A80E0DF91CF910C9479051F925D
:100F30000F920FB60F9211242F933F938F939F938D
:100F4000AF93BF938091020390910303A091040398
:100F5000B09105033091FD0223E0230F2D3720F4DB
:100F60000196A11DB11D05C026E8230F0296A11D03
:100F7000B11D2093FD028093020390930303A0937D
:100F80000403B09305038091FE029091FF02A091AB
:100F90000003B09101030196A11DB11D8093FE02D3
:100FA0009093FF02A0930003B0930103BF91AF9110
:100FB0009F918F913F912F910F900FBE0F901F9097
:100FC0001895FC0180819181009711F00C94BB0F62
:100FD00060E070E0CB010895FC0124813581232B72
:100FE00031F421E061157105A1F0FB0108C0FC019D
:100FF000808191816115710531F421E0FC018081CE
:10100000882339F005C00E94AB1621E0892B09F036
:1010100020E0822F08950F931F93CF93DF93EC016D
:1010200088819981009729F02A813B81261737070B
:1010300088F48B016F5F7F4F0E94D715009761F096
:10104000998388831B830A832C813D81232B11F490
:10105000FC01108281E001C080E0DF91CF911F91FF
:101060000F910895EF92FF920F931F93CF93DF9309
:10107000EC017B018A01BA010E940B0828813981A9
:1010800081110DC02115310519F0C9010E944E15BD
:10109000198218821D821C821B821A8206C01D833F
:1010A0000C83B701C9010E94B416CE01DF91CF9124
:1010B0001F910F91FF90EF900895FC011182108213
:1010C000138212821582148240E050E06BE771E0D7
:1010D0000C943208AF92BF92CF92DF92EF92FF92C0
:1010E0000F931F93CF93DF937C015B01EA016901AA
:1010F0002417350720F48D2FE901C42ED82EC701FF
:101100000E945D08D50114960D911C911597C0178A
:10111000D107C8F5C016D10608F48601D501ED91B6
:10112000FC911197E00FF11FD08010826D917C919E
:101130006C0F7D1F6115710561F0FB0101900020AE
:10114000E9F73197AF01461B570BC7010E943208E0
:1011500013C0F70180819181009711F00E944E1514
:10116000D70111961C921E9215961C921E921497EE
:1011700013961C921E921297F50180819181FC01B9
:10118000E00FF11FD082C701DF91CF911F910F9126
:10119000FF90EF90DF90CF90BF90AF900895CF93E6
:1011A000DF93CDB7DEB766970FB6F894DEBF0FBEFC
:1011B000CDBF789484B5826084BD84B5816084BDE0
:1011C00085B5826085BD85B5816085BD80916E00E5
:1011D000816080936E001092810080918100826016
:1011E0008093810080918100816080938100809153
:1011F00080008160809380008091B1008460809342
:10120000B1008091B00081608093B00080917A003D
:10121000846080937A0080917A00826080937A0063
:1012200080917A00816080937A0080917A00806852
:1012300080937A001092C100E0915D02F0915E020D
:1012400082E08083E0915902F0915A021082E0918D
:101250005B02F0915C028FEC808310926502E0915A
:101260006102F091620286E08083E0915F02F0917A
:101270006002808180618083E0915F02F091600272
:10128000808188608083E0915F02F09160028081BC
:1012900080688083E0915F02F091600280818F7DA1
:1012A000808385E090E0A0E0B0E0809351029093CD
:1012B0005202A0935302B09354021092E101109293
:1012C000E00110922A0210924C021092280281E052
:1012D000809327021092020261E082E10E946D0673
:1012E00061E083E10E946D068091B9008E7F80935A
:1012F000B9008091B9008D7F8093B90088E4809314
:10130000B80085E48093BC0060E880E00E94790525
:101310006AE070E080E090E00E94B30660E070E078
:101320008AE794E40E94ED0660E070E088E492E4CD
:101330000E94ED06EBEDF0E04491E7ECF0E08491E3
:101340008823C9F090E0880F991FFC01ED55FF4FED
:10135000A591B491FC01E954FF4F259134915FB7F9
:10136000F8949C91842F809598239C93D9018C911B
:10137000842B8C935FBF809180008C7F8093800052
:1013800080918100877E80618093810064EF71E0AD
:1013900080E090E00E94AF018091B0008C7F81607E
:1013A0008093B0008091B10088608093B10064EFB9
:1013B00071E080E090E00E94AB056091EA027091DC
:1013C000EB028091EC029091ED020E940D14AB01B2
:1013D000BC018AE00E94BB026091F2027091F302AC
:1013E0008091F4029091F5020E940D14AB01BC01B2
:1013F00083E00E94BB0211E08091D5019091D6015B
:10140000009741F0019709F09DC080910A019091E9
:101410000B0194C08091CF019091D00101968B3047
:1014200091052CF49093D0018093CF018BC0109242
:10143000D0011092CF0180E10E949C06C09006016D
:10144000D09007017C01EC18FD08F092CC01E092ED
:10145000CB0185E10E949C06409108015091090151
:101460009C01241B350B3093CE012093CD01C70185
:10147000820F931FC40ED51EB4E6CB0ED11CC81626
:10148000D9060CF055C02E193F092734310514F048
:1014900026E430E02A3BEFEF3E0714F42AEB3FEF5F
:1014A000C9010996439738F42AE530E030930301E7
:1014B0002093020147C0263F4FEF3407BCF430931E
:1014C0000B0120930A01C901330FAA0BBB0B9C012E
:1014D000AD01265F3F4F4F4F5F4FA6EABFEF0E941F
:1014E000BA1224EC3FEF4FEF5FEF19C02B303105FC
:1014F0004CF130930B0120930A01C901330FAA0B61
:10150000BB0B9C01AD012A50310941095109AAE5E3
:10151000B0E00E94AC122CE330E040E050E00E94CA
:101520008D12DA01C901865A9F4FAF4FBF4F06C0D7
:1015300010920B0110920A018AE590E0909303014A
:101540008093020120910201309103018091D10129
:101550009091D20101969093D2018093D101C397CB
:10156000D4F080910401909105018217930714F43F
:10157000019604C02817390734F4019790930101AC
:101580008093000104C03093010120930001109268
:10159000D2011092D101A0910001B0910101B0934C
:1015A0000501A093040124E031E00E94A91424EB7A
:1015B00030E040E050E00E948D1269017A0194E62B
:1015C000C90ED11CE11CF11C8091FA021093290272
:1015D00080934B0210922A0210924C028091FB02DF
:1015E0009091FC02DC01ED91FC910190F081E02DE5
:1015F00066E0099560E070E08091FB029091FC024A
:101600000E94A40560E070E08091FB029091FC02D2
:101610000E94A405B6018091FB029091FC020E94F9
:10162000A4056D2D70E08091FB029091FC020E9458
:10163000A40581E00E941D058091D3019091D40101
:10164000029784F08091D5019091D601892B31F4D5
:10165000609104018DE492E00E943C011092D4015B
:101660001092D3018091D3019091D401019690936F
:10167000D4018093D3018DE492E00E940501892B6F
:1016800009F432C1CE010D960E945D088DE492E00E
:101690000E940501892B09F447C0CE0101960E94E2
:1016A0005D080E940406ED80FE8097FD1AC08F83BE
:1016B0001886BFEFEB1AFB0AB701CE0101960E9414
:1016C0000B08882371F329813A818D819E81BE01A7
:1016D000695F7F4F820F931F0E94B416FE82ED82D6
:1016E000E0CFC980DA80C114D104C9F0E114F1045B
:1016F000B1F089899A89E80EF91EB701CE010D96DD
:101700000E940B08882359F02D853E8589899A8986
:10171000B601820F931F0E94B416FA8AE98A898162
:101720009A810E944E15B2CF23E030E040E050E0B5
:10173000BE01635F7F4FCE0107960E946A08298928
:101740003A8943E050E0BE01635F7F4FCE010196CE
:101750000E946A0864E671E0CE0107960E94EC07D9
:10176000882391F089819A81009719F00E94B70F20
:1017700003C060E070E0CB01609310017093110131
:10178000809312019093130168E671E0CE010796F1
:101790000E94EC07882391F089819A81009719F0C3
:1017A0000E94B70F03C060E070E0CB0160931401AA
:1017B0007093150180931601909317016CE671E008
:1017C000CE0107960E94EC07882391F089819A81C7
:1017D000009719F00E94B70F03C060E070E0CB01E2
:1017E000609318017093190180931A0190931B0163
:1017F00060E771E0CE0107960E94EC07882341F074
:10180000CE0101960E94E10770930B0160930A01DB
:1018100064E771E0CE0107960E94EC07882341F04F
:10182000CE0101960E94E1077093D6016093D50125
:1018300068E771E0CE0107960E94EC078823A1F0CB
:10184000CE0101960E94E1076B017C01FB01EE5D78
:10185000FE4F80810E949C069601220F331FF901E2
:10186000EA5FFE4F918380836CE771E0CE010796BB
:101870000E94EC07882361F0CE0101960E94E107E7
:101880007093DC016093DB017093DE016093DD01F6
:1018900060E871E0CE0107960E94EC07882341F0D2
:1018A000CE0101960E94E1077093DC016093DB0199
:1018B00064E871E0CE0107960E94EC07882341F0AE
:1018C000CE0101960E94E1077093DE016093DD0175
:1018D00089819A810E944E158F8198850E944E15AC
:1018E0008D859E850E944E1580910F01882381F180
:1018F00000910E01013039F400930D010E94700334
:1019000000930C0121C00230A9F410920D010E9435
:10191000700310930C011093DF0120E030E04CE8DD
:1019200052E42093EE023093EF024093F002509382
:10193000F1020CC0033051F410920D0160E083E01D
:101940000E94EE0210920C011092DF0110920F0122
:1019500080910D01882309F456C020911401309123
:10196000150140911601509117012093F202309316
:10197000F3024093F4025093F502609118017091C4
:10198000190180911A0190911B010E942813609304
:10199000EA027093EB028093EC029093ED02809147
:1019A000DD019091DE018130910599F410930C01D5
:1019B0008091100190911101A0911201B091130139
:1019C0008093EE029093EF02A093F002B093F102A5
:1019D00004C0892B11F410920C018091DB019091CD
:1019E000DC018130910519F40E94700306C0892B37
:1019F00021F460E083E00E94EE0282E090E09093A8
:101A0000DC018093DB018091DF01882309F44AC067
:101A10008EE00E949C06BC01990F880B990B0E94D6
:101A20006D1120E030E048EC52EC0E94CC1120E037
:101A300030EC4FE754E40E94941320E030E048EC8F
:101A400052E40E9428136093F2027093F302809391
:101A5000F4029093F5028FE00E949C06BC01990F5E
:101A6000880B990B0E946D112AE038E240E25CEB92
:101A70000E94CC1120E030E040EA50E40E9428139C
:101A80002091F2023091F3024091F4025091F5025C
:101A90000E9428136093EA027093EB028093EC0299
:101AA0009093ED0280910C01882309F45AC1609152
:101AB000F2027091F3028091F4029091F5020E947B
:101AC0000D14AB01BC0183E00E94BB026091EA02ED
:101AD0007091EB028091EC029091ED020E940D1446
:101AE000AB01BC018AE00E94BB022090D90130907A
:101AF000DA012101330C6608770820E030E04FE777
:101B000053E46091EE027091EF028091F0029091A7
:101B1000F1020E94CC1120E030E048EC52E40E9437
:101B200094136B017C0120E030E0A9010E94941421
:101B300020E030E040E05FE387FD0CC0C701B60164
:101B40000E9428130E940614461657066806790656
:101B50006CF066C0C701B6010E9427130E940614EC
:101B600046165706680679060CF054C0C12CD12CD5
:101B70007601D301C2018C0D9D1DAE1DBF1D8B8B47
:101B80009C8BAD8BBE8B20E030E04FE753E460913F
:101B9000EE027091EF028091F0029091F1020E94AA
:101BA000CC1120E030E048EC52E40E9494134B0149
:101BB0005C0120E030E0A9010E94941420E030E0B4
:101BC00040E05FE387FD05C0C501B4010E94281312
:101BD00004C0C501B4010E9427130E9406142B897A
:101BE0003C894D895E8926173707480759070CF04D
:101BF00087C06C2D620D8AE00E94EE026AE070E000
:101C000080E090E00E94B3063FEFC31AD30AE30AD4
:101C1000F30AAFCF64157505860597058CF06DC086
:101C200020E030E040E05FE3C701B6010E942813E6
:101C30000E94061464157505860597050CF053C0BF
:101C4000C12CD12C7601D301C2018C0D9D1DAE1D7E
:101C5000BF1D8B8B9C8BAD8BBE8B20E030E04FE7A4
:101C600053E46091EE027091EF028091F002909146
:101C7000F1020E94CC1120E030E048EC52E40E94D6
:101C800094134B015C0120E030E0A9010E94941400
:101C900020E030E040E05FE387FD05C0C501B4010E
:101CA0000E94281304C0C501B4010E9427130E949A
:101CB00006142B893C894D895E8962177307840756
:101CC0009507F4F46C2D620D8AE00E94EE026AE042
:101CD00070E080E090E00E94B30631E0C31AD108C2
:101CE000E108F108B0CF20E030E040E05FE3C70159
:101CF000B6010E9428130E9406148AE00E94EE0298
:101D000020E030E04FE753E46091EE027091EF0283
:101D10008091F0029091F1020E94CC1120E030E01D
:101D200048EC52E40E9494136B017C0120E030E007
:101D3000A9010E94941420E030E040E05FE387FDB9
:101D400005C0C701B6010E94281304C0C701B6012F
:101D50000E9427130E9406147093DA016093D90140
:101D60004EC020E030E04FE753E46091EE02709106
:101D7000EF028091F0029091F1020E94CC1120E0DC
:101D800030E048EC52E40E9494136B017C0120E0A7
:101D900030E0A9010E94941420E030E040E05FE3CD
:101DA00087FD05C0C701B6010E94281304C0C70102
:101DB000B6010E9427130E9406147B011E141F0403
:101DC00074F46E2D8AE00E94EE026EE170E080E015
:101DD00090E00E94B30641E0E41AF108EFCF1092C0
:101DE000EE021092EF021092F0021092F10260E007
:101DF0008AE00E94EE021092DA011092D901EFEE11
:101E0000F0E08491EBEDF0E00491E7ECF0E0F49089
:101E1000FF2091F081110E944406EF2DF0E0EE0FBB
:101E2000FF1FE355FF4FA591B4918C91082381E0EA
:101E300009F480E0F82E01C0F12CF092D8018091D5
:101E4000D701F816A1F0F1100CC080910E018F5F40
:101E5000843018F480930E0102C010930E01109389
:101E60000F0162E370E080E090E00E94B306F09220
:101E7000D7010E94A501C0CACF92DF92EF92FF92D4
:101E8000EDE4F2E01382128288EE93E0A0E0B0E08D
:101E900084839583A683B78324E431E03183208350
:101EA00025EC30E03587248724EC30E0378726871F
:101EB00020EC30E0318B208B21EC30E0338B228B17
:101EC00022EC30E0358B248B26EC30E0378B268BF0
:101ED000118E128E138E148EE6E0F3E013821282BE
:101EE00084839583A683B78386E591E0918380837D
:101EF000AAEFB2E080E48C931296FC93EE931197D4
:101F0000609118017091190180911A0190911B0143
:101F10002091140130911501409116015091170143
:101F20002093F2023093F3024093F4025093F502AF
:101F3000C0901001D0901101E0901201F0901301B7
:101F4000C092EE02D092EF02E092F002F092F10223
:101F50000E9428136093EA027093EB028093EC02D4
:101F60009093ED02FF90EF90DF90CF900895662759
:101F700077270C94F70F1F93FC0199278827BC0142
:101F8000E89411911032E9F3193010F01E30C8F3C3
:101F90001B3251F01D3249F4689406C00E94E20FD2
:101FA000610F711D811D911D119110531A30B0F3F5
:101FB0003EF490958095709561957F4F8F4F9F4F20
:101FC0001F910895592F482F372F262F660F771FFF
:101FD000881F991F660F771F881F991F620F731F35
:101FE000841F951F660F771F881F991F0895A0E013
:101FF000B0E0EDEFFFE00C94C512EC016B01611550
:10200000710519F0FB01918380837E01FFEFEF1AC8
:10201000FF0A0881802F90E00E944511892B11F062
:10202000E701F3CF0D3239F47E0182E0E80EF11CB6
:10203000098111E008C00B3229F47E0192E0E90E1B
:10204000F11C098110E0E701219743E050E060E7CF
:1020500070E0CE010E944E11892BC1F4239645E019
:1020600050E06BE670E0CE010E944E11892B09F41E
:102070002596C114D10419F0F601D183C083111142
:10208000F6C060E070E080E89FE7FAC043E050E00F
:1020900068E670E0CE010E944E11892B59F4C114FC
:1020A000D10409F4E9C0F2E0EF0EF11CF601F1826F
:1020B000E082E2C020E030E0A901C0E0D0E0F7011A
:1020C00080EDA82EA00E89E08A1530F1912F926044
:1020D000B92E812F887012FF04C0811124C021966F
:1020E00022C081112197A5E0B0E00E94AC12DC0172
:1020F000CB01880F991FAA1FBB1F9C01AD012A0DA0
:10210000311D411D511D283989E93807480789E1EA
:10211000580748F0166006C09EEFA9120AC013FDCA
:1021200040C01860B12E8FEFE81AF80A00811B2D0D
:10213000C6CF802F8F7D8534A1F580818D3211F43B
:10214000106106C08B3221F0319661E070E004C06E
:102150008181329662E070E080538A3018F0E61B8D
:10216000F70B1FC060E070E060389CE079075CF41A
:10217000DB01AA0FBB1FAA0FBB1F6A0F7B1F660FD5
:10218000771F680F711D3196DF0111978C91805375
:102190008A3050F314FF03C0719561957109C60F21
:1021A000D71F11FF08C0C114D10429F0CF01019736
:1021B000F60191838083CA01B9010E946B11212F1E
:1021C0002370233019F04B015C0106C04B015C0108
:1021D000B7FAB094B7F8B09420E030E0A901C50197
:1021E000B4010E946611882309F43EC0D7FF06C0DF
:1021F000D195C195D10907E810E002C00FE910E0C0
:102200006801F8E1CF1AD10890E2E92EF12CCE1541
:10221000DF0574F0F8012591359145915491C50180
:10222000B4010E94CC114B015C01CE19DF09EFCF44
:1022300004501109F594E7940C151D0541F78A2DFA
:10224000880F8B2D881F8F3F49F020E030E0A901D7
:10225000C501B4010E946611811106C082E290E0BE
:102260009093130380931203C501B40109C060E089
:1022700070E080E89FEF04C060E070E080EC9FE7D2
:10228000CDB7DEB7ECE00C94E11291110C94391249
:10229000803219F089508550C8F70895FB01DC01A0
:1022A0004150504088F08D9181341CF08B350CF4F6
:1022B000805E659161341CF06B350CF4605E861BAA
:1022C000611171F3990B0895881BFCCF0E94A8112E
:1022D00008F481E00895E89409C097FB3EF49095D6
:1022E0008095709561957F4F8F4F9F4F9923A9F0EF
:1022F000F92F96E9BB279395F6958795779567957E
:10230000B795F111F8CFFAF4BB0F11F460FF1BC0C1
:102310006F5F7F4F8F4F9F4F16C0882311F096E954
:1023200011C0772321F09EE8872F762F05C0662302
:1023300071F096E8862F70E060E02AF09A95660FBB
:10234000771F881FDAF7880F9695879597F9089574
:10235000990F0008550FAA0BE0E8FEEF16161706B6
:10236000E807F907C0F012161306E407F50798F01E
:10237000621B730B840B950B39F40A2661F0232B37
:10238000242B252B21F408950A2609F4A140A695B3
:102390008FEF811D811D08950E94DF110C9453124F
:1023A0000E94451238F00E944C1220F0952311F043
:1023B0000C943C120C94421211240C9487120E942B
:1023C000641270F3959FC1F3950F50E0551F629F03
:1023D000F001729FBB27F00DB11D639FAA27F00D7E
:1023E000B11DAA1F649F6627B00DA11D661F829FA5
:1023F0002227B00DA11D621F739FB00DA11D621F8A
:10240000839FA00D611D221F749F3327A00D611DA6
:10241000231F849F600D211D822F762F6A2F112488
:102420009F5750409AF0F1F088234AF0EE0FFF1FBB
:10243000BB1F661F771F881F91505040A9F79E3F12
:10244000510580F00C943C120C9487125F3FE4F32A
:10245000983ED4F3869577956795B795F795E79568
:102460009F5FC1F7FE2B880F911D9695879597F971
:10247000089599278827089597F99F6780E870E065
:1024800060E008959FEF80EC089500240A941616EA
:10249000170618060906089500240A941216130652
:1024A000140605060895092E0394000C11F48823E0
:1024B00052F0BB0F40F4BF2B11F460FF04C06F5FFC
:1024C0007F4F8F4F9F4F089557FD9058440F551FD2
:1024D00059F05F3F71F04795880F97FB991F61F0A6
:1024E0009F3F79F087950895121613061406551F1D
:1024F000F2CF4695F1DF08C0161617061806991F89
:10250000F1CF86957105610508940895E894BB277D
:1025100066277727CB0197F90895052E97FB1EF4C0
:1025200000940E94A41257FD07D00E94F61207FCE7
:1025300003D04EF40C94A4125095409530952195FB
:102540003F4F4F4F5F4F08959095809570956195DF
:102550007F4F8F4F9F4F08950E941813A59F900D96
:10256000B49F900DA49F800D911D11240895B7FF75
:102570000C94AC120E94AC12821B930B08952F9204
:102580003F924F925F926F927F928F929F92AF9203
:10259000BF92CF92DF92EF92FF920F931F93CF9350
:1025A000DF93CDB7DEB7CA1BDB0B0FB6F894DEBFE7
:1025B0000FBECDBF09942A88398848885F846E840D
:1025C0007D848C849B84AA84B984C884DF80EE8057
:1025D000FD800C811B81AA81B981CE0FD11D0FB660
:1025E000F894DEBF0FBECDBFED010895A1E21A2E13
:1025F000AA1BBB1BFD010DC0AA1FBB1FEE1FFF1FA7
:10260000A217B307E407F50720F0A21BB30BE40BF6
:10261000F50B661F771F881F991F1A9469F760953D
:102620007095809590959B01AC01BD01CF010895F7
:10263000A29FB001B39FC001A39F700D811D112403
:10264000911DB29F700D811D1124911D0895505848
:10265000BB27AA270E943F130C9453120E944512D5
:1026600038F00E944C1220F039F49F3F19F426F400
:102670000C9442120EF4E095E7FB0C943C12E92F07
:102680000E94641258F3BA1762077307840795070C
:1026900020F079F4A6F50C9486120EF4E0950B2E3A
:1026A000BA2FA02D0B01B90190010C01CA01A001A4
:1026B0001124FF27591B99F0593F50F4503E68F1FF
:1026C0001A16F040A22F232F342F4427585FF3CF40
:1026D000469537952795A795F0405395C9F77EF411
:1026E0001F16BA0B620B730B840BBAF09150A1F05A
:1026F000FF0FBB1F661F771F881FC2F70EC0BA0FE0
:10270000621F731F841F48F4879577956795B79567
:10271000F7959E3F08F0B0CF9395880F08F0992762
:10272000EE0F9795879508950E94A8130C94531265
:102730000E944C1258F00E94451240F029F45F3F6D
:1027400029F00C943C1251110C9487120C944212F3
:102750000E94641268F39923B1F3552391F3951BFA
:10276000550BBB27AA2762177307840738F09F5FB2
:102770005F4F220F331F441FAA1FA9F335D00E2E1F
:102780003AF0E0E832D091505040E695001CCAF78C
:102790002BD0FE2F29D0660F771F881FBB1F26174F
:1027A00037074807AB07B0E809F0BB0B802DBF0126
:1027B000FF2793585F4F3AF09E3F510578F00C94F5
:1027C0003C120C9487125F3FE4F3983ED4F3869555
:1027D00077956795B795F7959F5FC9F7880F911D16
:1027E0009695879597F90895E1E0660F771F881F02
:1027F000BB1F621773078407BA0720F0621B730BB5
:10280000840BBA0BEE1F88F7E09508950E940D1413
:102810006894B1110C94871208950E946C1288F08C
:102820009F5798F0B92F9927B751B0F0E1F0660F94
:10283000771F881F991F1AF0BA95C9F714C0B130D5
:1028400091F00E948612B1E008950C948612672FD1
:10285000782F8827B85F39F0B93FCCF38695779504
:102860006795B395D9F73EF49095809570956195ED
:102870007F4F8F4F9F4F08950E947C1490F09F3799
:1028800048F4911116F00C94871260E070E080E833
:102890009FEB089526F41B16611D711D811D0C947C
:1028A00053140C946E14882371F4772321F09850FC
:1028B000872B762F07C0662311F499270DC09051FE
:1028C000862B70E060E02AF09A95660F771F881FCC
:1028D000DAF7880F9695879597F908959F3F31F01D
:1028E000915020F4879577956795B795880F911D3E
:1028F0009695879597F908950E946C12A0F0BEE70F
:10290000B91788F4BB279F3860F41616B11D672FDE
:10291000782F8827985FF7CF869577956795B11DB3
:1029200093959639C8F308950E94A81108F48FEF83
:102930000895DB018F939F930E94AC12BF91AF91DA
:10294000A29F800D911DA39F900DB29F900D112409
:1029500008950E941813B7FF0895821B930B0895E2
:10296000EE0FFF1F0590F491E02D09940F931F9334
:10297000CF93DF938230910510F482E090E0E091F4
:102980001603F091170320E030E0A0E0B0E03097AC
:1029900019F1408151810281138148175907C8F00C
:1029A0008417950769F4109731F012960C931297DB
:1029B00013961C9327C0009316031093170322C08D
:1029C0002115310519F04217530718F49A01BD017A
:1029D000EF01DF01F801DBCF21153105F9F0281BEC
:1029E000390B2430310580F48A819B816115710592
:1029F00021F0FB019383828304C09093170380939B
:102A00001603FE01329644C0FE01E20FF31F8193CC
:102A1000919322503109398328833AC020911403BD
:102A200030911503232B41F420911E0130911F0199
:102A3000309315032093140320911C0130911D0144
:102A40002115310541F42DB73EB740912001509139
:102A50002101241B350BE0911403F0911503E217BB
:102A6000F307A0F42E1B3F0B2817390778F0AC01B1
:102A70004E5F5F4F2417350748F04E0F5F1F50938E
:102A80001503409314038193919302C0E0E0F0E0BA
:102A9000CF01DF91CF911F910F910895CF93DF93D5
:102AA000009709F481C0FC01329713821282A09131
:102AB0001603B0911703109781F420813181820FA2
:102AC000931F20911403309115032817390751F5EE
:102AD000F0931503E093140367C0ED0120E030E0AC
:102AE000CE17DF0740F44A815B819E0141155105F5
:102AF000F1F0EA01F5CFD383C28340815181840F85
:102B0000951FC817D90759F488819981840F951F9B
:102B10000296918380838A819B819383828321158E
:102B2000310529F4F0931703E09316033DC0E90142
:102B3000FB83EA8349915991C40FD51FEC17FD0718
:102B400061F480819181840F951F0296E901998338
:102B50008883828193819B838A83E0E0F0E01296F0
:102B60008D919C911397009719F0FD01DC01F7CF2F
:102B70008D919C9111979D012E5F3F4F820F931F66
:102B800020911403309115032817390769F4309701
:102B900029F4109217031092160302C013821282B6
:102BA000B0931503A0931403DF91CF910895A0E093
:102BB000B0E0EDEDF5E10C94C312EC01009721F4C7
:102BC000CB010E94B614B4C0FC01E60FF71F9C01B4
:102BD00022503109E217F30708F4A8C0D9010D917A
:102BE0001C91119706171707B0F00530110508F46E
:102BF0009BC0C80104978617970708F495C0025038
:102C00001109061B170B019311936D937C93CF0150
:102C10000E944E1589C05B01A01AB10A4C01800EBA
:102C2000911EA0911603B0911703612C712CE12C19
:102C3000F12C109709F446C08D919C911197A8151D
:102C4000B905B1F56C0142E0C40ED11CCA14DB0415
:102C500078F14C018A189B08640142E0C40ED11C33
:102C60001296BC9012971396AC91B5E0CB16D10496
:102C700040F0B282A38391828082D9016D937C93CC
:102C800009C00E5F1F4F800F911FF9019183808350
:102C9000EB2DFA2FE114F10431F0D7011396FC93D8
:102CA000EE93129741C0F0931703E09316033CC0D4
:102CB0006816790608F43C017D0112960D90BC91CE
:102CC000A02DB7CF80911403909115038816990613
:102CD000E1F466167706C8F480911C0190911D01FD
:102CE000009741F48DB79EB740912001509121018A
:102CF000841B950BE817F907C8F4F0931503E093CC
:102D00001403F901718360830FC0CB010E94B614D4
:102D10007C01009759F0A801BE010E94A216CE01C5
:102D20000E944E15C70104C0CE0102C080E090E0B1
:102D3000CDB7DEB7EEE00C94DF1281E090E0F894BE
:102D40000C94BB16FB01DC0102C001900D924150B6
:102D50005040D8F70895FB01DC018D910190801956
:102D60000110D9F3990B0895FB01DC0101900D923C
:0A2D70000020E1F70895F894FFCF6A
:102D7A005A005A005A001E0032005A00010101018D
:102D8A000000204100005242000020C00000180349
:102D9A00800010150000010008002000400080009B
:102DAA0000010004000001000800400000010004C6
:102DBA00000000003C01AA00D40083010501E300E1
:102DCA00F7000000000088025B02B8022F025302DB
:102DDA003F0230026C756D0066716D0066716C00A1
:102DEA0061676C00726D7400636C62006D6F6400E1
:082DFA006D6F74006C6564004C
:00000001FF
